{
    "_format": "hh-sol-artifact-1",
    "contractName": "FamilyFrens",
    "sourceName": "contracts/familyfrens.sol",
    "abi": [
        {
            "inputs": [],
            "stateMutability": "nonpayable",
            "type": "constructor"
        },
        {
            "anonymous": false,
            "inputs": [
                {
                    "indexed": true,
                    "internalType": "address",
                    "name": "owner",
                    "type": "address"
                },
                {
                    "indexed": true,
                    "internalType": "address",
                    "name": "approved",
                    "type": "address"
                },
                {
                    "indexed": true,
                    "internalType": "uint256",
                    "name": "tokenId",
                    "type": "uint256"
                }
            ],
            "name": "Approval",
            "type": "event"
        },
        {
            "anonymous": false,
            "inputs": [
                {
                    "indexed": true,
                    "internalType": "address",
                    "name": "owner",
                    "type": "address"
                },
                {
                    "indexed": true,
                    "internalType": "address",
                    "name": "operator",
                    "type": "address"
                },
                {
                    "indexed": false,
                    "internalType": "bool",
                    "name": "approved",
                    "type": "bool"
                }
            ],
            "name": "ApprovalForAll",
            "type": "event"
        },
        {
            "anonymous": false,
            "inputs": [
                {
                    "indexed": true,
                    "internalType": "address",
                    "name": "previousOwner",
                    "type": "address"
                },
                {
                    "indexed": true,
                    "internalType": "address",
                    "name": "newOwner",
                    "type": "address"
                }
            ],
            "name": "OwnershipTransferred",
            "type": "event"
        },
        {
            "anonymous": false,
            "inputs": [
                {
                    "indexed": true,
                    "internalType": "address",
                    "name": "from",
                    "type": "address"
                },
                {
                    "indexed": true,
                    "internalType": "address",
                    "name": "to",
                    "type": "address"
                },
                {
                    "indexed": true,
                    "internalType": "uint256",
                    "name": "tokenId",
                    "type": "uint256"
                }
            ],
            "name": "Transfer",
            "type": "event"
        },
        {
            "inputs": [],
            "name": "MAX_FREE_MINT",
            "outputs": [
                {
                    "internalType": "uint256",
                    "name": "",
                    "type": "uint256"
                }
            ],
            "stateMutability": "view",
            "type": "function"
        },
        {
            "inputs": [],
            "name": "MAX_FREE_PER_WALLET",
            "outputs": [
                {
                    "internalType": "uint256",
                    "name": "",
                    "type": "uint256"
                }
            ],
            "stateMutability": "view",
            "type": "function"
        },
        {
            "inputs": [],
            "name": "MAX_MINTS_PER_TX",
            "outputs": [
                {
                    "internalType": "uint256",
                    "name": "",
                    "type": "uint256"
                }
            ],
            "stateMutability": "view",
            "type": "function"
        },
        {
            "inputs": [],
            "name": "PUBLIC_SALE_PRICE",
            "outputs": [
                {
                    "internalType": "uint256",
                    "name": "",
                    "type": "uint256"
                }
            ],
            "stateMutability": "view",
            "type": "function"
        },
        {
            "inputs": [],
            "name": "WLMint",
            "outputs": [],
            "stateMutability": "nonpayable",
            "type": "function"
        },
        {
            "inputs": [
                {
                    "internalType": "address",
                    "name": "to",
                    "type": "address"
                },
                {
                    "internalType": "uint256",
                    "name": "tokenId",
                    "type": "uint256"
                }
            ],
            "name": "approve",
            "outputs": [],
            "stateMutability": "nonpayable",
            "type": "function"
        },
        {
            "inputs": [
                {
                    "internalType": "address",
                    "name": "owner",
                    "type": "address"
                }
            ],
            "name": "balanceOf",
            "outputs": [
                {
                    "internalType": "uint256",
                    "name": "",
                    "type": "uint256"
                }
            ],
            "stateMutability": "view",
            "type": "function"
        },
        {
            "inputs": [],
            "name": "baseTokenURI",
            "outputs": [
                {
                    "internalType": "string",
                    "name": "",
                    "type": "string"
                }
            ],
            "stateMutability": "view",
            "type": "function"
        },
        {
            "inputs": [
                {
                    "internalType": "uint256",
                    "name": "tokenId",
                    "type": "uint256"
                }
            ],
            "name": "getApproved",
            "outputs": [
                {
                    "internalType": "address",
                    "name": "",
                    "type": "address"
                }
            ],
            "stateMutability": "view",
            "type": "function"
        },
        {
            "inputs": [],
            "name": "getCurrentId",
            "outputs": [
                {
                    "internalType": "uint256",
                    "name": "",
                    "type": "uint256"
                }
            ],
            "stateMutability": "view",
            "type": "function"
        },
        {
            "inputs": [],
            "name": "getPrice",
            "outputs": [
                {
                    "internalType": "uint256",
                    "name": "",
                    "type": "uint256"
                }
            ],
            "stateMutability": "view",
            "type": "function"
        },
        {
            "inputs": [
                {
                    "internalType": "address",
                    "name": "owner",
                    "type": "address"
                },
                {
                    "internalType": "address",
                    "name": "operator",
                    "type": "address"
                }
            ],
            "name": "isApprovedForAll",
            "outputs": [
                {
                    "internalType": "bool",
                    "name": "",
                    "type": "bool"
                }
            ],
            "stateMutability": "view",
            "type": "function"
        },
        {
            "inputs": [],
            "name": "isPublicSaleActive",
            "outputs": [
                {
                    "internalType": "bool",
                    "name": "",
                    "type": "bool"
                }
            ],
            "stateMutability": "view",
            "type": "function"
        },
        {
            "inputs": [],
            "name": "maxSupply",
            "outputs": [
                {
                    "internalType": "uint256",
                    "name": "",
                    "type": "uint256"
                }
            ],
            "stateMutability": "view",
            "type": "function"
        },
        {
            "inputs": [],
            "name": "mint",
            "outputs": [],
            "stateMutability": "payable",
            "type": "function"
        },
        {
            "inputs": [],
            "name": "name",
            "outputs": [
                {
                    "internalType": "string",
                    "name": "",
                    "type": "string"
                }
            ],
            "stateMutability": "view",
            "type": "function"
        },
        {
            "inputs": [],
            "name": "owner",
            "outputs": [
                {
                    "internalType": "address",
                    "name": "",
                    "type": "address"
                }
            ],
            "stateMutability": "view",
            "type": "function"
        },
        {
            "inputs": [
                {
                    "internalType": "uint256",
                    "name": "tokenId",
                    "type": "uint256"
                }
            ],
            "name": "ownerOf",
            "outputs": [
                {
                    "internalType": "address",
                    "name": "",
                    "type": "address"
                }
            ],
            "stateMutability": "view",
            "type": "function"
        },
        {
            "inputs": [],
            "name": "renounceOwnership",
            "outputs": [],
            "stateMutability": "nonpayable",
            "type": "function"
        },
        {
            "inputs": [
                {
                    "internalType": "address",
                    "name": "from",
                    "type": "address"
                },
                {
                    "internalType": "address",
                    "name": "to",
                    "type": "address"
                },
                {
                    "internalType": "uint256",
                    "name": "tokenId",
                    "type": "uint256"
                }
            ],
            "name": "safeTransferFrom",
            "outputs": [],
            "stateMutability": "nonpayable",
            "type": "function"
        },
        {
            "inputs": [
                {
                    "internalType": "address",
                    "name": "from",
                    "type": "address"
                },
                {
                    "internalType": "address",
                    "name": "to",
                    "type": "address"
                },
                {
                    "internalType": "uint256",
                    "name": "tokenId",
                    "type": "uint256"
                },
                {
                    "internalType": "bytes",
                    "name": "data",
                    "type": "bytes"
                }
            ],
            "name": "safeTransferFrom",
            "outputs": [],
            "stateMutability": "nonpayable",
            "type": "function"
        },
        {
            "inputs": [
                {
                    "internalType": "address",
                    "name": "operator",
                    "type": "address"
                },
                {
                    "internalType": "bool",
                    "name": "approved",
                    "type": "bool"
                }
            ],
            "name": "setApprovalForAll",
            "outputs": [],
            "stateMutability": "nonpayable",
            "type": "function"
        },
        {
            "inputs": [
                {
                    "internalType": "string",
                    "name": "baseURI",
                    "type": "string"
                }
            ],
            "name": "setBaseURI",
            "outputs": [],
            "stateMutability": "nonpayable",
            "type": "function"
        },
        {
            "inputs": [
                {
                    "internalType": "uint256",
                    "name": "_limit",
                    "type": "uint256"
                }
            ],
            "name": "setFreeLimitPerWallet",
            "outputs": [],
            "stateMutability": "nonpayable",
            "type": "function"
        },
        {
            "inputs": [
                {
                    "internalType": "bool",
                    "name": "_isPublicSaleActive",
                    "type": "bool"
                }
            ],
            "name": "setIsPublicSaleActive",
            "outputs": [],
            "stateMutability": "nonpayable",
            "type": "function"
        },
        {
            "inputs": [
                {
                    "internalType": "uint256",
                    "name": "_limit",
                    "type": "uint256"
                }
            ],
            "name": "setMaxLimitPerTransaction",
            "outputs": [],
            "stateMutability": "nonpayable",
            "type": "function"
        },
        {
            "inputs": [
                {
                    "internalType": "uint256",
                    "name": "_price",
                    "type": "uint256"
                }
            ],
            "name": "setSalePrice",
            "outputs": [],
            "stateMutability": "nonpayable",
            "type": "function"
        },
        {
            "inputs": [
                {
                    "internalType": "bytes4",
                    "name": "interfaceId",
                    "type": "bytes4"
                }
            ],
            "name": "supportsInterface",
            "outputs": [
                {
                    "internalType": "bool",
                    "name": "",
                    "type": "bool"
                }
            ],
            "stateMutability": "view",
            "type": "function"
        },
        {
            "inputs": [],
            "name": "symbol",
            "outputs": [
                {
                    "internalType": "string",
                    "name": "",
                    "type": "string"
                }
            ],
            "stateMutability": "view",
            "type": "function"
        },
        {
            "inputs": [],
            "name": "tokenURI",
            "outputs": [
                {
                    "internalType": "string",
                    "name": "",
                    "type": "string"
                }
            ],
            "stateMutability": "view",
            "type": "function"
        },
        {
            "inputs": [
                {
                    "internalType": "uint256",
                    "name": "tokenId",
                    "type": "uint256"
                }
            ],
            "name": "tokenURI",
            "outputs": [
                {
                    "internalType": "string",
                    "name": "",
                    "type": "string"
                }
            ],
            "stateMutability": "view",
            "type": "function"
        },
        {
            "inputs": [
                {
                    "internalType": "address",
                    "name": "from",
                    "type": "address"
                },
                {
                    "internalType": "address",
                    "name": "to",
                    "type": "address"
                },
                {
                    "internalType": "uint256",
                    "name": "tokenId",
                    "type": "uint256"
                }
            ],
            "name": "transferFrom",
            "outputs": [],
            "stateMutability": "nonpayable",
            "type": "function"
        },
        {
            "inputs": [
                {
                    "internalType": "address",
                    "name": "newOwner",
                    "type": "address"
                }
            ],
            "name": "transferOwnership",
            "outputs": [],
            "stateMutability": "nonpayable",
            "type": "function"
        },
        {
            "inputs": [],
            "name": "withdraw",
            "outputs": [],
            "stateMutability": "nonpayable",
            "type": "function"
        }
    ],
    "bytecode": "0x60806040526000600d60006101000a81548160ff0219169083151502179055506103e8600e556003600f55600a6010556004601155660aa87bee538000601255604051806080016040528060598152602001620041aa6059913960139080519060200190620000709291906200021b565b503480156200007e57600080fd5b506040518060400160405280600c81526020017f46616d696c79204672656e7300000000000000000000000000000000000000008152506040518060400160405280600381526020017f46414d00000000000000000000000000000000000000000000000000000000008152508160009080519060200190620001039291906200021b565b5080600190805190602001906200011c9291906200021b565b5050506200013f620001336200014d60201b60201c565b6200015560201b60201c565b600160088190555062000330565b600033905090565b6000600760009054906101000a900473ffffffffffffffffffffffffffffffffffffffff16905081600760006101000a81548173ffffffffffffffffffffffffffffffffffffffff021916908373ffffffffffffffffffffffffffffffffffffffff1602179055508173ffffffffffffffffffffffffffffffffffffffff168173ffffffffffffffffffffffffffffffffffffffff167f8be0079c531659141344cd1fd0a4f28419497f9722a3daafe3b4186f6b6457e060405160405180910390a35050565b8280546200022990620002cb565b90600052602060002090601f0160209004810192826200024d576000855562000299565b82601f106200026857805160ff191683800117855562000299565b8280016001018555821562000299579182015b82811115620002985782518255916020019190600101906200027b565b5b509050620002a89190620002ac565b5090565b5b80821115620002c7576000816000905550600101620002ad565b5090565b60006002820490506001821680620002e457607f821691505b60208210811415620002fb57620002fa62000301565b5b50919050565b7f4e487b7100000000000000000000000000000000000000000000000000000000600052602260045260246000fd5b613e6a80620003406000396000f3fe6080604052600436106101f95760003560e01c80636519bc641161010d5780639e9fcffc116100a0578063c87b56dd1161006f578063c87b56dd146106b4578063d547cfb7146106f1578063d5abeb011461071c578063e985e9c514610747578063f2fde38b14610784576101f9565b80639e9fcffc1461060e578063a22cb46514610637578063b88d4fde14610660578063c6a91b4214610689576101f9565b80638da5cb5b116100dc5780638da5cb5b1461056257806395d89b411461058d57806398710d1e146105b857806398d5fdca146105e3576101f9565b80636519bc64146104cc5780636c143862146104e357806370a082311461050e578063715018a61461054b576101f9565b8063202f298a116101905780633ccfd60b1161015f5780633ccfd60b146103fb57806341cda2031461041257806342842e0e1461043d57806355f804b3146104665780636352211e1461048f576101f9565b8063202f298a1461035557806323b872dd1461037e57806328cad13d146103a75780633c130d90146103d0576101f9565b8063095ea7b3116101cc578063095ea7b3146102ce5780631249c58b146102f75780631919fed7146103015780631e84c4131461032a576101f9565b806301ffc9a7146101fe57806306fdde031461023b57806307e89ec014610266578063081812fc14610291575b600080fd5b34801561020a57600080fd5b50610225600480360381019061022091906129e2565b6107ad565b6040516102329190613055565b60405180910390f35b34801561024757600080fd5b5061025061088f565b60405161025d9190613070565b60405180910390f35b34801561027257600080fd5b5061027b610921565b60405161028891906133a2565b60405180910390f35b34801561029d57600080fd5b506102b860048036038101906102b39190612a75565b610927565b6040516102c59190612fee565b60405180910390f35b3480156102da57600080fd5b506102f560048036038101906102f0919061297d565b61096d565b005b6102ff610a85565b005b34801561030d57600080fd5b5061032860048036038101906103239190612a75565b610d33565b005b34801561033657600080fd5b5061033f610d45565b60405161034c9190613055565b60405180910390f35b34801561036157600080fd5b5061037c60048036038101906103779190612a75565b610d58565b005b34801561038a57600080fd5b506103a560048036038101906103a09190612877565b610d6a565b005b3480156103b357600080fd5b506103ce60048036038101906103c991906129b9565b610dca565b005b3480156103dc57600080fd5b506103e5610def565b6040516103f29190613070565b60405180910390f35b34801561040757600080fd5b50610410610e78565b005b34801561041e57600080fd5b50610427610ee2565b60405161043491906133a2565b60405180910390f35b34801561044957600080fd5b50610464600480360381019061045f9190612877565b610ee8565b005b34801561047257600080fd5b5061048d60048036038101906104889190612a34565b610f08565b005b34801561049b57600080fd5b506104b660048036038101906104b19190612a75565b610f2a565b6040516104c39190612fee565b60405180910390f35b3480156104d857600080fd5b506104e1610fdc565b005b3480156104ef57600080fd5b506104f8611044565b60405161050591906133a2565b60405180910390f35b34801561051a57600080fd5b5061053560048036038101906105309190612812565b611055565b60405161054291906133a2565b60405180910390f35b34801561055757600080fd5b5061056061110d565b005b34801561056e57600080fd5b50610577611121565b6040516105849190612fee565b60405180910390f35b34801561059957600080fd5b506105a261114b565b6040516105af9190613070565b60405180910390f35b3480156105c457600080fd5b506105cd6111dd565b6040516105da91906133a2565b60405180910390f35b3480156105ef57600080fd5b506105f86111e3565b60405161060591906133a2565b60405180910390f35b34801561061a57600080fd5b5061063560048036038101906106309190612a75565b6111ed565b005b34801561064357600080fd5b5061065e60048036038101906106599190612941565b6111ff565b005b34801561066c57600080fd5b50610687600480360381019061068291906128c6565b611215565b005b34801561069557600080fd5b5061069e611277565b6040516106ab91906133a2565b60405180910390f35b3480156106c057600080fd5b506106db60048036038101906106d69190612a75565b61127d565b6040516106e89190613070565b60405180910390f35b3480156106fd57600080fd5b50610706611390565b6040516107139190613070565b60405180910390f35b34801561072857600080fd5b5061073161141e565b60405161073e91906133a2565b60405180910390f35b34801561075357600080fd5b5061076e6004803603810190610769919061283b565b611424565b60405161077b9190613055565b60405180910390f35b34801561079057600080fd5b506107ab60048036038101906107a69190612812565b6114b8565b005b60007f80ac58cd000000000000000000000000000000000000000000000000000000007bffffffffffffffffffffffffffffffffffffffffffffffffffffffff1916827bffffffffffffffffffffffffffffffffffffffffffffffffffffffff1916148061087857507f5b5e139f000000000000000000000000000000000000000000000000000000007bffffffffffffffffffffffffffffffffffffffffffffffffffffffff1916827bffffffffffffffffffffffffffffffffffffffffffffffffffffffff1916145b8061088857506108878261153c565b5b9050919050565b60606000805461089e90613618565b80601f01602080910402602001604051908101604052809291908181526020018280546108ca90613618565b80156109175780601f106108ec57610100808354040283529160200191610917565b820191906000526020600020905b8154815290600101906020018083116108fa57829003601f168201915b5050505050905090565b60125481565b6000610932826115a6565b6004600083815260200190815260200160002060009054906101000a900473ffffffffffffffffffffffffffffffffffffffff169050919050565b600061097882610f2a565b90508073ffffffffffffffffffffffffffffffffffffffff168373ffffffffffffffffffffffffffffffffffffffff1614156109e9576040517f08c379a00000000000000000000000000000000000000000000000000000000081526004016109e0906132e2565b60405180910390fd5b8073ffffffffffffffffffffffffffffffffffffffff16610a086115f1565b73ffffffffffffffffffffffffffffffffffffffff161480610a375750610a3681610a316115f1565b611424565b5b610a76576040517f08c379a0000000000000000000000000000000000000000000000000000000008152600401610a6d90613222565b60405180910390fd5b610a8083836115f9565b505050565b6000610a91600c6116b2565b90506000600f54600960003373ffffffffffffffffffffffffffffffffffffffff1673ffffffffffffffffffffffffffffffffffffffff1681526020019081526020016000206001015410610ae857601254610aeb565b60005b905033600a60000160006101000a81548173ffffffffffffffffffffffffffffffffffffffff021916908373ffffffffffffffffffffffffffffffffffffffff160217905550600d60009054906101000a900460ff16610b80576040517f08c379a0000000000000000000000000000000000000000000000000000000008152600401610b7790613382565b60405180910390fd5b600e54821115610bc5576040517f08c379a0000000000000000000000000000000000000000000000000000000008152600401610bbc906130c2565b60405180910390fd5b601154600960003373ffffffffffffffffffffffffffffffffffffffff1673ffffffffffffffffffffffffffffffffffffffff1681526020019081526020016000206001015410610c4b576040517f08c379a0000000000000000000000000000000000000000000000000000000008152600401610c4290613322565b60405180910390fd5b34811115610c8e576040517f08c379a0000000000000000000000000000000000000000000000000000000008152600401610c8590613302565b60405180910390fd5b6001600960003373ffffffffffffffffffffffffffffffffffffffff1673ffffffffffffffffffffffffffffffffffffffff1681526020019081526020016000206001016000828254610ce191906134a7565b92505081905550610cf233836116c0565b610d0382610cfe610def565b6116de565b610d25604051806060016040528060248152602001613e116024913983611752565b610d2f600c6117ee565b5050565b610d3b611804565b8060128190555050565b600d60009054906101000a900460ff1681565b610d60611804565b8060118190555050565b610d7b610d756115f1565b82611882565b610dba576040517f08c379a0000000000000000000000000000000000000000000000000000000008152600401610db190613342565b60405180910390fd5b610dc5838383611917565b505050565b610dd2611804565b80600d60006101000a81548160ff02191690831515021790555050565b60606000610dfd600c6116b2565b9050610e0881611b7e565b610e47576040517f08c379a0000000000000000000000000000000000000000000000000000000008152600401610e3e906132a2565b60405180910390fd5b6013610e5282611bea565b604051602001610e63929190612f9f565b60405160208183030381529060405291505090565b610e80611804565b60026008541415610ec6576040517f08c379a0000000000000000000000000000000000000000000000000000000008152600401610ebd90613362565b60405180910390fd5b6002600881905550610ed83347611d97565b6001600881905550565b600f5481565b610f0383838360405180602001604052806000815250611215565b505050565b610f10611804565b8060139080519060200190610f26929190612636565b5050565b6000806002600084815260200190815260200160002060009054906101000a900473ffffffffffffffffffffffffffffffffffffffff169050600073ffffffffffffffffffffffffffffffffffffffff168173ffffffffffffffffffffffffffffffffffffffff161415610fd3576040517f08c379a0000000000000000000000000000000000000000000000000000000008152600401610fca906132c2565b60405180910390fd5b80915050919050565b610fe4611804565b6000610ff0600c6116b2565b9050600e54811115611037576040517f08c379a000000000000000000000000000000000000000000000000000000000815260040161102e90613262565b60405180910390fd5b61104133826116c0565b50565b6000611050600c6116b2565b905090565b60008073ffffffffffffffffffffffffffffffffffffffff168273ffffffffffffffffffffffffffffffffffffffff1614156110c6576040517f08c379a00000000000000000000000000000000000000000000000000000000081526004016110bd906131e2565b60405180910390fd5b600360008373ffffffffffffffffffffffffffffffffffffffff1673ffffffffffffffffffffffffffffffffffffffff168152602001908152602001600020549050919050565b611115611804565b61111f6000611e8b565b565b6000600760009054906101000a900473ffffffffffffffffffffffffffffffffffffffff16905090565b60606001805461115a90613618565b80601f016020809104026020016040519081016040528092919081815260200182805461118690613618565b80156111d35780601f106111a8576101008083540402835291602001916111d3565b820191906000526020600020905b8154815290600101906020018083116111b657829003601f168201915b5050505050905090565b60115481565b6000601254905090565b6111f5611804565b8060108190555050565b61121161120a6115f1565b8383611f51565b5050565b6112266112206115f1565b83611882565b611265576040517f08c379a000000000000000000000000000000000000000000000000000000000815260040161125c90613342565b60405180910390fd5b611271848484846120be565b50505050565b60105481565b6060611288826115a6565b60006006600084815260200190815260200160002080546112a890613618565b80601f01602080910402602001604051908101604052809291908181526020018280546112d490613618565b80156113215780601f106112f657610100808354040283529160200191611321565b820191906000526020600020905b81548152906001019060200180831161130457829003601f168201915b50505050509050600061133261211a565b905060008151141561134857819250505061138b565b60008251111561137d578082604051602001611365929190612f7b565b6040516020818303038152906040529250505061138b565b611386846121ac565b925050505b919050565b6013805461139d90613618565b80601f01602080910402602001604051908101604052809291908181526020018280546113c990613618565b80156114165780601f106113eb57610100808354040283529160200191611416565b820191906000526020600020905b8154815290600101906020018083116113f957829003601f168201915b505050505081565b600e5481565b6000600560008473ffffffffffffffffffffffffffffffffffffffff1673ffffffffffffffffffffffffffffffffffffffff16815260200190815260200160002060008373ffffffffffffffffffffffffffffffffffffffff1673ffffffffffffffffffffffffffffffffffffffff16815260200190815260200160002060009054906101000a900460ff16905092915050565b6114c0611804565b600073ffffffffffffffffffffffffffffffffffffffff168173ffffffffffffffffffffffffffffffffffffffff161415611530576040517f08c379a000000000000000000000000000000000000000000000000000000000815260040161152790613102565b60405180910390fd5b61153981611e8b565b50565b60007f01ffc9a7000000000000000000000000000000000000000000000000000000007bffffffffffffffffffffffffffffffffffffffffffffffffffffffff1916827bffffffffffffffffffffffffffffffffffffffffffffffffffffffff1916149050919050565b6115af81611b7e565b6115ee576040517f08c379a00000000000000000000000000000000000000000000000000000000081526004016115e5906132c2565b60405180910390fd5b50565b600033905090565b816004600083815260200190815260200160002060006101000a81548173ffffffffffffffffffffffffffffffffffffffff021916908373ffffffffffffffffffffffffffffffffffffffff160217905550808273ffffffffffffffffffffffffffffffffffffffff1661166c83610f2a565b73ffffffffffffffffffffffffffffffffffffffff167f8c5be1e5ebec7d5bd14f71427d1e84f3dd0314c0f7b2291e5b200ac8c7c3b92560405160405180910390a45050565b600081600001549050919050565b6116da828260405180602001604052806000815250612214565b5050565b6116e782611b7e565b611726576040517f08c379a000000000000000000000000000000000000000000000000000000000815260040161171d90613202565b60405180910390fd5b8060066000848152602001908152602001600020908051906020019061174d929190612636565b505050565b6117ea8282604051602401611768929190613092565b6040516020818303038152906040527fb60e72cc000000000000000000000000000000000000000000000000000000007bffffffffffffffffffffffffffffffffffffffffffffffffffffffff19166020820180517bffffffffffffffffffffffffffffffffffffffffffffffffffffffff838183161783525050505061226f565b5050565b6001816000016000828254019250508190555050565b61180c6115f1565b73ffffffffffffffffffffffffffffffffffffffff1661182a611121565b73ffffffffffffffffffffffffffffffffffffffff1614611880576040517f08c379a000000000000000000000000000000000000000000000000000000000815260040161187790613282565b60405180910390fd5b565b60008061188e83610f2a565b90508073ffffffffffffffffffffffffffffffffffffffff168473ffffffffffffffffffffffffffffffffffffffff1614806118d057506118cf8185611424565b5b8061190e57508373ffffffffffffffffffffffffffffffffffffffff166118f684610927565b73ffffffffffffffffffffffffffffffffffffffff16145b91505092915050565b8273ffffffffffffffffffffffffffffffffffffffff1661193782610f2a565b73ffffffffffffffffffffffffffffffffffffffff161461198d576040517f08c379a000000000000000000000000000000000000000000000000000000000815260040161198490613122565b60405180910390fd5b600073ffffffffffffffffffffffffffffffffffffffff168273ffffffffffffffffffffffffffffffffffffffff1614156119fd576040517f08c379a00000000000000000000000000000000000000000000000000000000081526004016119f490613162565b60405180910390fd5b611a08838383612298565b611a136000826115f9565b6001600360008573ffffffffffffffffffffffffffffffffffffffff1673ffffffffffffffffffffffffffffffffffffffff1681526020019081526020016000206000828254611a63919061352e565b925050819055506001600360008473ffffffffffffffffffffffffffffffffffffffff1673ffffffffffffffffffffffffffffffffffffffff1681526020019081526020016000206000828254611aba91906134a7565b92505081905550816002600083815260200190815260200160002060006101000a81548173ffffffffffffffffffffffffffffffffffffffff021916908373ffffffffffffffffffffffffffffffffffffffff160217905550808273ffffffffffffffffffffffffffffffffffffffff168473ffffffffffffffffffffffffffffffffffffffff167fddf252ad1be2c89b69c2b068fc378daa952ba7f163c4a11628f55a4df523b3ef60405160405180910390a4611b7983838361229d565b505050565b60008073ffffffffffffffffffffffffffffffffffffffff166002600084815260200190815260200160002060009054906101000a900473ffffffffffffffffffffffffffffffffffffffff1673ffffffffffffffffffffffffffffffffffffffff1614159050919050565b60606000821415611c32576040518060400160405280600181526020017f30000000000000000000000000000000000000000000000000000000000000008152509050611d92565b600082905060005b60008214611c64578080611c4d9061367b565b915050600a82611c5d91906134fd565b9150611c3a565b60008167ffffffffffffffff811115611ca6577f4e487b7100000000000000000000000000000000000000000000000000000000600052604160045260246000fd5b6040519080825280601f01601f191660200182016040528015611cd85781602001600182028036833780820191505090505b5090505b60008514611d8b57600182611cf1919061352e565b9150600a85611d0091906136c4565b6030611d0c91906134a7565b60f81b818381518110611d48577f4e487b7100000000000000000000000000000000000000000000000000000000600052603260045260246000fd5b60200101907effffffffffffffffffffffffffffffffffffffffffffffffffffffffffffff1916908160001a905350600a85611d8491906134fd565b9450611cdc565b8093505050505b919050565b80471015611dda576040517f08c379a0000000000000000000000000000000000000000000000000000000008152600401611dd1906131c2565b60405180910390fd5b60008273ffffffffffffffffffffffffffffffffffffffff1682604051611e0090612fd9565b60006040518083038185875af1925050503d8060008114611e3d576040519150601f19603f3d011682016040523d82523d6000602084013e611e42565b606091505b5050905080611e86576040517f08c379a0000000000000000000000000000000000000000000000000000000008152600401611e7d906131a2565b60405180910390fd5b505050565b6000600760009054906101000a900473ffffffffffffffffffffffffffffffffffffffff16905081600760006101000a81548173ffffffffffffffffffffffffffffffffffffffff021916908373ffffffffffffffffffffffffffffffffffffffff1602179055508173ffffffffffffffffffffffffffffffffffffffff168173ffffffffffffffffffffffffffffffffffffffff167f8be0079c531659141344cd1fd0a4f28419497f9722a3daafe3b4186f6b6457e060405160405180910390a35050565b8173ffffffffffffffffffffffffffffffffffffffff168373ffffffffffffffffffffffffffffffffffffffff161415611fc0576040517f08c379a0000000000000000000000000000000000000000000000000000000008152600401611fb790613182565b60405180910390fd5b80600560008573ffffffffffffffffffffffffffffffffffffffff1673ffffffffffffffffffffffffffffffffffffffff16815260200190815260200160002060008473ffffffffffffffffffffffffffffffffffffffff1673ffffffffffffffffffffffffffffffffffffffff16815260200190815260200160002060006101000a81548160ff0219169083151502179055508173ffffffffffffffffffffffffffffffffffffffff168373ffffffffffffffffffffffffffffffffffffffff167f17307eab39ab6107e8899845ad3d59bd9653f200f220920489ca2b5937696c31836040516120b19190613055565b60405180910390a3505050565b6120c9848484611917565b6120d5848484846122a2565b612114576040517f08c379a000000000000000000000000000000000000000000000000000000000815260040161210b906130e2565b60405180910390fd5b50505050565b60606013805461212990613618565b80601f016020809104026020016040519081016040528092919081815260200182805461215590613618565b80156121a25780601f10612177576101008083540402835291602001916121a2565b820191906000526020600020905b81548152906001019060200180831161218557829003601f168201915b5050505050905090565b60606121b7826115a6565b60006121c161211a565b905060008151116121e1576040518060200160405280600081525061220c565b806121eb84611bea565b6040516020016121fc929190612f7b565b6040516020818303038152906040525b915050919050565b61221e8383612439565b61222b60008484846122a2565b61226a576040517f08c379a0000000000000000000000000000000000000000000000000000000008152600401612261906130e2565b60405180910390fd5b505050565b60008151905060006a636f6e736f6c652e6c6f679050602083016000808483855afa5050505050565b505050565b505050565b60006122c38473ffffffffffffffffffffffffffffffffffffffff16612613565b1561242c578373ffffffffffffffffffffffffffffffffffffffff1663150b7a026122ec6115f1565b8786866040518563ffffffff1660e01b815260040161230e9493929190613009565b602060405180830381600087803b15801561232857600080fd5b505af192505050801561235957506040513d601f19601f820116820180604052508101906123569190612a0b565b60015b6123dc573d8060008114612389576040519150601f19603f3d011682016040523d82523d6000602084013e61238e565b606091505b506000815114156123d4576040517f08c379a00000000000000000000000000000000000000000000000000000000081526004016123cb906130e2565b60405180910390fd5b805181602001fd5b63150b7a0260e01b7bffffffffffffffffffffffffffffffffffffffffffffffffffffffff1916817bffffffffffffffffffffffffffffffffffffffffffffffffffffffff191614915050612431565b600190505b949350505050565b600073ffffffffffffffffffffffffffffffffffffffff168273ffffffffffffffffffffffffffffffffffffffff1614156124a9576040517f08c379a00000000000000000000000000000000000000000000000000000000081526004016124a090613242565b60405180910390fd5b6124b281611b7e565b156124f2576040517f08c379a00000000000000000000000000000000000000000000000000000000081526004016124e990613142565b60405180910390fd5b6124fe60008383612298565b6001600360008473ffffffffffffffffffffffffffffffffffffffff1673ffffffffffffffffffffffffffffffffffffffff168152602001908152602001600020600082825461254e91906134a7565b92505081905550816002600083815260200190815260200160002060006101000a81548173ffffffffffffffffffffffffffffffffffffffff021916908373ffffffffffffffffffffffffffffffffffffffff160217905550808273ffffffffffffffffffffffffffffffffffffffff16600073ffffffffffffffffffffffffffffffffffffffff167fddf252ad1be2c89b69c2b068fc378daa952ba7f163c4a11628f55a4df523b3ef60405160405180910390a461260f6000838361229d565b5050565b6000808273ffffffffffffffffffffffffffffffffffffffff163b119050919050565b82805461264290613618565b90600052602060002090601f01602090048101928261266457600085556126ab565b82601f1061267d57805160ff19168380011785556126ab565b828001600101855582156126ab579182015b828111156126aa57825182559160200191906001019061268f565b5b5090506126b891906126bc565b5090565b5b808211156126d55760008160009055506001016126bd565b5090565b60006126ec6126e7846133e2565b6133bd565b90508281526020810184848401111561270457600080fd5b61270f8482856135d6565b509392505050565b600061272a61272584613413565b6133bd565b90508281526020810184848401111561274257600080fd5b61274d8482856135d6565b509392505050565b60008135905061276481613db4565b92915050565b60008135905061277981613dcb565b92915050565b60008135905061278e81613de2565b92915050565b6000815190506127a381613de2565b92915050565b600082601f8301126127ba57600080fd5b81356127ca8482602086016126d9565b91505092915050565b600082601f8301126127e457600080fd5b81356127f4848260208601612717565b91505092915050565b60008135905061280c81613df9565b92915050565b60006020828403121561282457600080fd5b600061283284828501612755565b91505092915050565b6000806040838503121561284e57600080fd5b600061285c85828601612755565b925050602061286d85828601612755565b9150509250929050565b60008060006060848603121561288c57600080fd5b600061289a86828701612755565b93505060206128ab86828701612755565b92505060406128bc868287016127fd565b9150509250925092565b600080600080608085870312156128dc57600080fd5b60006128ea87828801612755565b94505060206128fb87828801612755565b935050604061290c878288016127fd565b925050606085013567ffffffffffffffff81111561292957600080fd5b612935878288016127a9565b91505092959194509250565b6000806040838503121561295457600080fd5b600061296285828601612755565b92505060206129738582860161276a565b9150509250929050565b6000806040838503121561299057600080fd5b600061299e85828601612755565b92505060206129af858286016127fd565b9150509250929050565b6000602082840312156129cb57600080fd5b60006129d98482850161276a565b91505092915050565b6000602082840312156129f457600080fd5b6000612a028482850161277f565b91505092915050565b600060208284031215612a1d57600080fd5b6000612a2b84828501612794565b91505092915050565b600060208284031215612a4657600080fd5b600082013567ffffffffffffffff811115612a6057600080fd5b612a6c848285016127d3565b91505092915050565b600060208284031215612a8757600080fd5b6000612a95848285016127fd565b91505092915050565b612aa781613562565b82525050565b612ab681613574565b82525050565b6000612ac782613459565b612ad1818561346f565b9350612ae18185602086016135e5565b612aea816137b1565b840191505092915050565b6000612b0082613464565b612b0a818561348b565b9350612b1a8185602086016135e5565b612b23816137b1565b840191505092915050565b6000612b3982613464565b612b43818561349c565b9350612b538185602086016135e5565b80840191505092915050565b60008154612b6c81613618565b612b76818661349c565b94506001821660008114612b915760018114612ba257612bd5565b60ff19831686528186019350612bd5565b612bab85613444565b60005b83811015612bcd57815481890152600182019150602081019050612bae565b838801955050505b50505092915050565b6000612beb60248361348b565b9150612bf6826137c2565b604082019050919050565b6000612c0e60328361348b565b9150612c1982613811565b604082019050919050565b6000612c3160268361348b565b9150612c3c82613860565b604082019050919050565b6000612c5460258361348b565b9150612c5f826138af565b604082019050919050565b6000612c77601c8361348b565b9150612c82826138fe565b602082019050919050565b6000612c9a60248361348b565b9150612ca582613927565b604082019050919050565b6000612cbd60198361348b565b9150612cc882613976565b602082019050919050565b6000612ce0603a8361348b565b9150612ceb8261399f565b604082019050919050565b6000612d03601d8361348b565b9150612d0e826139ee565b602082019050919050565b6000612d2660298361348b565b9150612d3182613a17565b604082019050919050565b6000612d49602e8361348b565b9150612d5482613a66565b604082019050919050565b6000612d6c603e8361348b565b9150612d7782613ab5565b604082019050919050565b6000612d8f60208361348b565b9150612d9a82613b04565b602082019050919050565b6000612db260178361348b565b9150612dbd82613b2d565b602082019050919050565b6000612dd560058361349c565b9150612de082613b56565b600582019050919050565b6000612df860208361348b565b9150612e0382613b7f565b602082019050919050565b6000612e1b602f8361348b565b9150612e2682613ba8565b604082019050919050565b6000612e3e60188361348b565b9150612e4982613bf7565b602082019050919050565b6000612e6160218361348b565b9150612e6c82613c20565b604082019050919050565b6000612e84600083613480565b9150612e8f82613c6f565b600082019050919050565b6000612ea760188361348b565b9150612eb282613c72565b602082019050919050565b6000612eca602c8361348b565b9150612ed582613c9b565b604082019050919050565b6000612eed602e8361348b565b9150612ef882613cea565b604082019050919050565b6000612f10601f8361348b565b9150612f1b82613d39565b602082019050919050565b6000612f3360178361348b565b9150612f3e82613d62565b602082019050919050565b6000612f5660018361349c565b9150612f6182613d8b565b600182019050919050565b612f75816135cc565b82525050565b6000612f878285612b2e565b9150612f938284612b2e565b91508190509392505050565b6000612fab8285612b5f565b9150612fb682612f49565b9150612fc28284612b2e565b9150612fcd82612dc8565b91508190509392505050565b6000612fe482612e77565b9150819050919050565b60006020820190506130036000830184612a9e565b92915050565b600060808201905061301e6000830187612a9e565b61302b6020830186612a9e565b6130386040830185612f6c565b818103606083015261304a8184612abc565b905095945050505050565b600060208201905061306a6000830184612aad565b92915050565b6000602082019050818103600083015261308a8184612af5565b905092915050565b600060408201905081810360008301526130ac8185612af5565b90506130bb6020830184612f6c565b9392505050565b600060208201905081810360008301526130db81612bde565b9050919050565b600060208201905081810360008301526130fb81612c01565b9050919050565b6000602082019050818103600083015261311b81612c24565b9050919050565b6000602082019050818103600083015261313b81612c47565b9050919050565b6000602082019050818103600083015261315b81612c6a565b9050919050565b6000602082019050818103600083015261317b81612c8d565b9050919050565b6000602082019050818103600083015261319b81612cb0565b9050919050565b600060208201905081810360008301526131bb81612cd3565b9050919050565b600060208201905081810360008301526131db81612cf6565b9050919050565b600060208201905081810360008301526131fb81612d19565b9050919050565b6000602082019050818103600083015261321b81612d3c565b9050919050565b6000602082019050818103600083015261323b81612d5f565b9050919050565b6000602082019050818103600083015261325b81612d82565b9050919050565b6000602082019050818103600083015261327b81612da5565b9050919050565b6000602082019050818103600083015261329b81612deb565b9050919050565b600060208201905081810360008301526132bb81612e0e565b9050919050565b600060208201905081810360008301526132db81612e31565b9050919050565b600060208201905081810360008301526132fb81612e54565b9050919050565b6000602082019050818103600083015261331b81612e9a565b9050919050565b6000602082019050818103600083015261333b81612ebd565b9050919050565b6000602082019050818103600083015261335b81612ee0565b9050919050565b6000602082019050818103600083015261337b81612f03565b9050919050565b6000602082019050818103600083015261339b81612f26565b9050919050565b60006020820190506133b76000830184612f6c565b92915050565b60006133c76133d8565b90506133d3828261364a565b919050565b6000604051905090565b600067ffffffffffffffff8211156133fd576133fc613782565b5b613406826137b1565b9050602081019050919050565b600067ffffffffffffffff82111561342e5761342d613782565b5b613437826137b1565b9050602081019050919050565b60008190508160005260206000209050919050565b600081519050919050565b600081519050919050565b600082825260208201905092915050565b600081905092915050565b600082825260208201905092915050565b600081905092915050565b60006134b2826135cc565b91506134bd836135cc565b9250827fffffffffffffffffffffffffffffffffffffffffffffffffffffffffffffffff038211156134f2576134f16136f5565b5b828201905092915050565b6000613508826135cc565b9150613513836135cc565b92508261352357613522613724565b5b828204905092915050565b6000613539826135cc565b9150613544836135cc565b925082821015613557576135566136f5565b5b828203905092915050565b600061356d826135ac565b9050919050565b60008115159050919050565b60007fffffffff0000000000000000000000000000000000000000000000000000000082169050919050565b600073ffffffffffffffffffffffffffffffffffffffff82169050919050565b6000819050919050565b82818337600083830152505050565b60005b838110156136035780820151818401526020810190506135e8565b83811115613612576000848401525b50505050565b6000600282049050600182168061363057607f821691505b6020821081141561364457613643613753565b5b50919050565b613653826137b1565b810181811067ffffffffffffffff8211171561367257613671613782565b5b80604052505050565b6000613686826135cc565b91507fffffffffffffffffffffffffffffffffffffffffffffffffffffffffffffffff8214156136b9576136b86136f5565b5b600182019050919050565b60006136cf826135cc565b91506136da836135cc565b9250826136ea576136e9613724565b5b828206905092915050565b7f4e487b7100000000000000000000000000000000000000000000000000000000600052601160045260246000fd5b7f4e487b7100000000000000000000000000000000000000000000000000000000600052601260045260246000fd5b7f4e487b7100000000000000000000000000000000000000000000000000000000600052602260045260246000fd5b7f4e487b7100000000000000000000000000000000000000000000000000000000600052604160045260246000fd5b6000601f19601f8301169050919050565b7f436f6c6c656374696f6e2069732063757272656e746c792066756c6c79206d6960008201527f6e74656400000000000000000000000000000000000000000000000000000000602082015250565b7f4552433732313a207472616e7366657220746f206e6f6e20455243373231526560008201527f63656976657220696d706c656d656e7465720000000000000000000000000000602082015250565b7f4f776e61626c653a206e6577206f776e657220697320746865207a65726f206160008201527f6464726573730000000000000000000000000000000000000000000000000000602082015250565b7f4552433732313a207472616e736665722066726f6d20696e636f72726563742060008201527f6f776e6572000000000000000000000000000000000000000000000000000000602082015250565b7f4552433732313a20746f6b656e20616c7265616479206d696e74656400000000600082015250565b7f4552433732313a207472616e7366657220746f20746865207a65726f2061646460008201527f7265737300000000000000000000000000000000000000000000000000000000602082015250565b7f4552433732313a20617070726f766520746f2063616c6c657200000000000000600082015250565b7f416464726573733a20756e61626c6520746f2073656e642076616c75652c207260008201527f6563697069656e74206d61792068617665207265766572746564000000000000602082015250565b7f416464726573733a20696e73756666696369656e742062616c616e6365000000600082015250565b7f4552433732313a2061646472657373207a65726f206973206e6f74206120766160008201527f6c6964206f776e65720000000000000000000000000000000000000000000000602082015250565b7f45524337323155524953746f726167653a2055524920736574206f66206e6f6e60008201527f6578697374656e7420746f6b656e000000000000000000000000000000000000602082015250565b7f4552433732313a20617070726f76652063616c6c6572206973206e6f7420746f60008201527f6b656e206f776e6572206e6f7220617070726f76656420666f7220616c6c0000602082015250565b7f4552433732313a206d696e7420746f20746865207a65726f2061646472657373600082015250565b7f4d6178696d756d20737570706c79206578636565646564000000000000000000600082015250565b7f2e6a736f6e000000000000000000000000000000000000000000000000000000600082015250565b7f4f776e61626c653a2063616c6c6572206973206e6f7420746865206f776e6572600082015250565b7f4552433732314d657461646174613a2055524920717565727920666f72206e6f60008201527f6e6578697374656e7420746f6b656e0000000000000000000000000000000000602082015250565b7f4552433732313a20696e76616c696420746f6b656e2049440000000000000000600082015250565b7f4552433732313a20617070726f76616c20746f2063757272656e74206f776e6560008201527f7200000000000000000000000000000000000000000000000000000000000000602082015250565b50565b7f496e636f7272656374204554482076616c75652073656e740000000000000000600082015250565b7f596f7527766520657863656564656420746865206d6178696d756d206d696e7460008201527f20706572206163636f756e740000000000000000000000000000000000000000602082015250565b7f4552433732313a2063616c6c6572206973206e6f7420746f6b656e206f776e6560008201527f72206e6f7220617070726f766564000000000000000000000000000000000000602082015250565b7f5265656e7472616e637947756172643a207265656e7472616e742063616c6c00600082015250565b7f5075626c69632073616c65206973206e6f74206f70656e000000000000000000600082015250565b7f2f00000000000000000000000000000000000000000000000000000000000000600082015250565b613dbd81613562565b8114613dc857600080fd5b50565b613dd481613574565b8114613ddf57600080fd5b50565b613deb81613580565b8114613df657600080fd5b50565b613e02816135cc565b8114613e0d57600080fd5b5056fe5375636365737366756c6c79206d696e74656420746f6b656e2077697468204944202573a26469706673582212202a326881ca533f5aed4dc28caae414680b6947b13fb52e6e6e126f52fcf89e6764736f6c6343000804003368747470733a2f2f6261667962656965347a706971707574636e376c6f78377933346f7370797973687a686c3378336e6563616f6774376e796a7534646265793265612e697066732e6e667473746f726167652e6c696e6b2f",
    "linkReferences": {},
    "deployedLinkReferences": {}
}